:100000000C9435010C9466010C9466010C94660105
:100010000C9466010C9466010C9466010C946601C4
:100020000C9466010C9466010C9466010C946601B4
:100030000C9466010C9466010C9466010C946601A4
:100040000C9466010C9466010C9466010C94660194
:100050000C9466010C9466010C9466010C94950452
:100060000C9466010C9409050C94DF040C94660151
:100070000C9466010C9466010C9466010C94660164
:100080000C9466010C9466010C9466010C94660154
:100090000C9466010C9466010C9466010C94660144
:1000A0000C9466010C9466010C9466010C94660134
:1000B0000C9466010C9466010C9466010C94660124
:1000C0000C9466010C9466010C9466010C94660114
:1000D0000C9466010C9466010C9466010C94660104
:1000E0000C9466010C94D7020C946A030C94AB0137
:1000F0000C94A4080C94B3010C94A1010C94A501D8
:100100000C948C010C94BD010C94E5020C949001AC
:100110000C94B4020C941D030C9486010C94870279
:100120000C9498010C94B9010C94CB010C94C60169
:100130000C9494010C94C7010C949B010C94C10184
:100140000C94AF010C94C30200002100240027008E
:100150002A002D00300033000101000004010701D6
:100160000A0100002200250028002B002E0031008B
:10017000340002010000050108010B01000020000D
:100180002300260029002C002F003200000100006F
:10019000030106010901050505050705080808080A
:1001A000020202020A0A080804040404010101010F
:1001B000010101010303030303030303040707070A
:1001C0000C0C0C0C0C0C0C0C0202020206060606AF
:1001D000060606060B0B0B0B0B0B0B0B010210207C
:1001E000200808102040102040800201020108046D
:1001F0000201010204081020408080402010080401
:100200000201800402018040201008040201080459
:10021000020101020408102040800102040810209D
:10022000408000000A0B02090C0D0E0807030401B0
:1002300000000000000000000000000000000000BE
:10024000000000000000000000000000000012118B
:10025000100000000000000000000000000000008E
:100260000000000000000000A40811241FBECFEF12
:10027000D1E2DEBFCDBF00E00CBF24E0A0E5B3E0DB
:1002800001C01D92A137B207E1F713E0A0E0B2E090
:10029000E6E7F6E100E00BBF02C007900D92A03543
:1002A000B107D9F711E0C5E3D1E000E006C021971E
:1002B0000109802FFE010E940709C433D10780E0A5
:1002C0000807A9F70E943F050C94390B0C94000015
:1002D0008150823108F05AC0E82FF0E08827EC58AE
:1002E000FE4F8F4F0C9407099401980186018C01F1
:1002F0009001C6019B01A101A501AB01AF01B301B2
:10030000B901BD01C601C101C701CB0180918000C7
:100310008F77809380000895809180008F7DF9CF42
:1003200080918000877FF5CF84B58F7784BD089555
:1003300084B58F7DFBCF8091B0008F778093B00024
:1003400008958091B0008F7DF9CF809190008F77D4
:10035000809390000895809190008F7DF9CF8091D7
:100360009000877FF5CF8091A0008F778093A000C9
:1003700008958091A0008F7DF9CF8091A000877FA4
:10038000F5CF809120018F7780932001089580918F
:1003900020018F7DF9CF80912001877FF5CFCF930A
:1003A000DF93282F30E0F901EE5DFD4F8491F901D4
:1003B000E452FE4FD491F901EA56FE4FC491CC238A
:1003C000A1F081110E946801EC2FF0E0EE0FFF1FF9
:1003D000E458FE4FA591B491EC91ED2381E090E0BB
:1003E00009F480E0DF91CF91089580E090E0FACFAA
:1003F0001F93CF93DF93282F30E0F901EE5DFD4F7F
:100400008491F901E452FE4FD491F901EA56FE4F6E
:10041000C491CC23A9F0162F81110E946801EC2F02
:10042000F0E0EE0FFF1FEE59FE4FA591B4918FB78C
:10043000F894EC91111108C0D095DE23DC938FBFA6
:10044000DF91CF911F910895DE2BF8CFCF93DF93EB
:1004500090E0FC01E452FE4F24918A569E4FFC012D
:1004600084918823C9F090E0880F991FFC01E85B14
:10047000FE4FA591B491FC01EE59FE4FC591D49168
:1004800061110DC09FB7F8948C91209582238C93B5
:100490008881282328839FBFDF91CF910895623000
:1004A00051F49FB7F8943C91822F809583238C93CD
:1004B000E8812E2BEFCF8FB7F894EC912E2B2C9355
:1004C0008FBFEACF3FB7F8948091CC039091CD03D2
:1004D000A091CE03B091CF0326B5A89B05C02F3FB6
:1004E00019F00196A11DB11D3FBFBA2FA92F982F5A
:1004F0008827BC01CD01620F711D811D911D42E055
:10050000660F771F881F991F4A95D1F70895AF92FC
:10051000BF92CF92DF92EF92FF920F931F93CF93F0
:10052000DF936C017B018B01040F151FEB015E0152
:10053000AE18BF08C017D10759F06991D601ED91E7
:10054000FC910190F081E02DC6011995892B79F776
:10055000C501DF91CF911F910F91FF90EF90DF9038
:10056000CF90BF90AF900895FC01538D448D252FFF
:1005700030E0842F90E0821B930B541710F0CF963D
:10058000089501970895FC01918D828D981761F06F
:10059000A28DAE0FBF2FB11D5D968C91928D9F5F86
:1005A0009F73928F90E008958FEF9FEF0895FC0165
:1005B000918D828D981731F0828DE80FF11D858D18
:1005C00090E008958FEF9FEF0895FC01918D228DAB
:1005D000892F90E0805C9F4F821B91098F73992730
:1005E000089580ED93E00E94E50221E0892B09F453
:1005F00020E0822F0895FC01A48DA80FB92FB11D12
:10060000A35ABF4F2C91848D90E001968F73992748
:10061000848FA689B7892C93A089B1898C91837026
:1006200080648C93938D848D981306C00288F3891F
:10063000E02D80818F7D80830895EF92FF920F934C
:100640001F93CF93DF93EC0181E0888F9B8D8C8D7E
:1006500098131AC0E889F989808185FF15C09FB772
:10066000F894EE89FF896083E889F9898081837035
:10067000806480839FBF81E090E0DF91CF911F91E4
:100680000F91FF90EF900895F62E0B8D10E00F5F05
:100690001F4F0F731127E02E8C8D8E110CC00FB6DB
:1006A00007FCFACFE889F989808185FFF5CFCE0173
:1006B0000E94FB02F1CFEB8DEC0FFD2FF11DE35AF1
:1006C000FF4FF0829FB7F8940B8FEA89FB898081F6
:1006D0008062CFCFCF93DF93EC01888D8823B9F070
:1006E000AA89BB89E889F9898C9185FD03C080813D
:1006F00086FD0DC00FB607FCF7CF8C9185FFF2CFBA
:10070000808185FFEDCFCE010E94FB02E9CFDF9112
:10071000CF91089580E090E0892B29F00E94F102AA
:1007200081110E94000080E090E0892B49F080E078
:1007300090E0892B29F00E94000081110E940000A6
:1007400080E090E0892B49F080E090E0892B29F04F
:100750000E94000081110E94000080E090E0892B3F
:1007600049F080E090E0892B29F00E94000081117F
:100770000C9400000895FC0101900020E9F73197E6
:10078000AF01481B590BBC0180ED93E00C9487022C
:100790008F929F92AF92BF920F931F93CF93DF934D
:1007A000CDB7DEB7A1970FB6F894DEBF0FBECDBFB1
:1007B00019A2423008F44AE08E010F5D1F4F842ECB
:1007C000912CB12CA12CA50194010E94E508E62FE3
:1007D000B901CA01EA30F4F4E05DD801EE938D016D
:1007E000232B242B252B79F790E080E0109719F02C
:1007F000CD010E94BB03A1960FB6F894DEBF0FBED9
:10080000CDBFDF91CF911F910F91BF90AF909F907F
:100810008F900895E95CE1CFCF93DF930E94BB03F3
:10082000EC0184E392E00E94BB038C0F9D1FDF91DB
:10083000CF9108950C94BB03CF92DF92EF92FF9279
:10084000CF93DF936C01990FEE08FF08F7FE19C0F4
:100850006DE280ED93E00E941D03EC01662777278F
:10086000CB016C197D098E099F094AE00E94C803DB
:100870008C0F9D1FDF91CF91FF90EF90DF90CF9075
:1008800008954AE0C701B601DF91CF91FF90EF9044
:10089000DF90CF900C94C803EF92FF920F931F93B9
:1008A000CF93DF93EC017B01198218821B821A829D
:1008B0001D821C82FB0101900020E9F731978F0116
:1008C000061B170BB8016F5F7F4F90E080E00E941E
:1008D000480A0097B9F0998388831B830A832C8187
:1008E0003D81232B11F4FC0110821D830C83B70181
:1008F00088819981DF91CF911F910F91FF90EF90A7
:100900000C94320B88819981009711F00E94BF09E5
:10091000198218821D821C821B821A82DF91CF915C
:100920001F910F91FF90EF9008951F920F920FB6B5
:100930000F9211242F933F938F939F93AF93BF9365
:100940008091C8039091C903A091CA03B091CB03D1
:100950003091C70323E0230F2D3758F50196A11DD1
:10096000B11D2093C7038093C8039093C903A0933C
:10097000CA03B093CB038091CC039091CD03A09197
:10098000CE03B091CF030196A11DB11D8093CC037E
:100990009093CD03A093CE03B093CF03BF91AF91BB
:1009A0009F918F913F912F910F900FBE0F901F90AD
:1009B000189526E8230F0296A11DB11DD2CF1F92D4
:1009C0000F920FB60F9211240BB60F922F933F93F5
:1009D0004F935F936F937F938F939F93AF93BF9347
:1009E000EF93FF9380ED93E00E94FB02FF91EF9164
:1009F000BF91AF919F918F917F916F915F914F9137
:100A00003F912F910F900BBE0F900FBE0F901F9034
:100A100018951F920F920FB60F9211240BB60F92DA
:100A20002F938F939F93EF93FF93E091E003F091C7
:100A3000E1038081E091E603F091E70382FD1DC0B0
:100A400090818091E9038F5F8F732091EA03821771
:100A500041F0E091E903F0E0E053FC4F958F809383
:100A6000E903FF91EF919F918F912F910F900BBE12
:100A70000F900FBE0F901F9018958081F2CFCF93EB
:100A8000DF9300D000D000D01F92CDB7DEB77894AE
:100A900084B5826084BD84B5816084BD85B5826083
:100AA00085BD85B5816085BD80916E008160809334
:100AB0006E0010928100809181008260809381009D
:100AC00080918100816080938100809180008160AD
:100AD000809380008091B10084608093B100809108
:100AE000B00081608093B00080919100826080931B
:100AF000910080919100816080939100809190009D
:100B00008160809390008091A10082608093A10019
:100B10008091A10081608093A1008091A0008160FC
:100B20008093A000809121018260809321018091B7
:100B30002101816080932101809120018160809357
:100B4000200180917A00846080937A0080917A00FD
:100B5000826080937A0080917A00816080937A002D
:100B600080917A00806880937A001092C100E091B1
:100B7000E003F091E10382E08083E091DC03F091F7
:100B8000DD031082E091DE03F091DF038FEC8083C0
:100B90001092E803E091E403F091E50386E080839E
:100BA000E091E203F091E303808180618083E09132
:100BB000E203F091E303808188608083E091E203A7
:100BC000F091E303808180688083E091E203F091FB
:100BD000E30380818F7D808387E392E00E940C0491
:100BE00062E08DE10E94260206E212E0F8018081B7
:100BF0000E5F1F4F60E00E942602F2E004331F07E1
:100C0000A9F708E112E0F801F0800E5F1F4F61E0E4
:100C10008F2D0E94260260E08F2D0E94F801F2E0E5
:100C200006321F0781F7332433948091C603811164
:100C30008FC08DE10E94CF01892B09F089C00E94ED
:100C400062024B015C0162E3C62ED12CE12CF12C37
:100C50000E946202681979098A099B09683E7340FB
:100C600081059105A8F321E0C21AD108E108F10835
:100C700038EE830E33E0931EA11CB11CC114D104C5
:100C8000E104F10429F78DE10E94CF01892B09F0DD
:100C90005FC083E692E00E940C043092C6032FB737
:100CA000F8948091C8039091C903A091CA03B091B0
:100CB000CB032FBF8093500390935103A093520313
:100CC000B09353031092C5031092C40304E513E0DC
:100CD0008AE9882E83E0982E90E7A92E93E0B92E1A
:100CE00026EBC22E23E0D22E37E7632E33E0732E9D
:100CF0004EE7442E43E0542E58E1E52E52E0F52E07
:100D0000F80111921192119211928F01F401119236
:100D10001192119211924F01F50111925F01F601AA
:100D2000119211926F01F30111923F01F2011192A0
:100D30001192119211922F01F7018081F2E0EF0ED2
:100D4000F11C60E00E94F80123E000371207C1F6B1
:100D5000E090C603EE2009F44AC18FB7F894809062
:100D6000C8039090C903A090CA03B090CB038FBF73
:100D700010E7412E13E0512E06E2C02E02E0D02EE5
:100D800010E000E0F601F0807180F2E0CF0ED11C9F
:100D90008F2D0E94CF01F2012081019709F06BC1D4
:100DA000211183C03082F801EC5AFC4F808291827D
:100DB000A282B3828091C4039091C50387309105CC
:100DC0000CF073C0FC01EE0FFF1FEA54FC4FF082E1
:100DD000718201969093C5038093C4038091500360
:100DE00090915103A0915203B0915303A501940136
:100DF000281B390B4A0B5B0B2F83388749875A878F
:100E000084EA92E00E941A048F2D972D0E941C0400
:100E100082E892E00E941A048091C4039091C50375
:100E20000E941C042091C4033091C503C90164E6EB
:100E300070E00E94D1080B97039718F46AE872E0FB
:100E400013C0C9016AE070E00E94D10860E972E055
:100E50008230910549F063E972E08330910521F019
:100E60006DE872E0019751F7CE0101960E944C04A3
:100E70004D815E8169817A8180ED93E00E948702D5
:100E800089819A81009711F00E94BF0986E992E05A
:100E90000E941A044AE06F81788589859A850E94AC
:100EA000C8038BE992E00E940C04FFEF4F1A5F0A1F
:100EB0000C5F1F4F0C31110509F064CFEAE9F3E034
:100EC00081919191A191B191892B8A2B8B2B09F45E
:100ED00004C1A6EB4A2EA3E05A2E4E165F0681F7F8
:100EE0008091C4039091C503079709F07CC0EE2060
:100EF00009F479C01092C60383EC92E00E940C04BE
:100F00008DED92E00E940C0484EF92E00E940C04AC
:100F100076EBE72E73E0F72E670110E000E082E049
:100F200093E00E941A040F5F1F4FC8010E941C0427
:100F300085E093E00E941A04F601819191916F017E
:100F40000E941C0484E392E00E94BB030730110559
:100F500031F78CE093E00E940C0468E1C62E62E059
:100F6000D62E10E000E0F701219131917F01E6E2F9
:100F7000F2E090E080E0419151912417350709F0AB
:100F8000AEC0880F991F880F991FFC01E656FC4FD1
:100F900080809180A280B3808FE193E00E941A0448
:100FA0000F5F1F4FC8010E941C0486E293E00E945D
:100FB0001A04F601819191916F010E941C048DE247
:100FC00093E00E941A044AE0C501B4010E94C803DC
:100FD0008BE992E00E940C040730110521F686E3AC
:100FE00093E00E940C048091C603811141C080915E
:100FF000C4039091C5030797D9F58FB7F8948090F3
:10100000C8039090C903A090CA03B090CB038FBFD0
:1010100036EBE32E33E0F32E4EE7C42E43E0D42E1E
:1010200010E000E0F701219131917F01E6E2F2E06A
:1010300090E080E0419151912417350709F058C0A4
:10104000880F991F880F991FFC01E656FC4F80817D
:101050009181A281B3810097A105B10509F04EC02D
:101060000F5F1F4FF4E0CF0ED11C07301105D1F6F2
:101070000E948A03DACD222309F417CF1082980147
:1010800026563C4F38872F83F801EC5AFC4F80815D
:101090009181A281B381A5019401281B390B4A0BD0
:1010A0005B0BDA01C901EF81F88580839183A2830C
:1010B000B3838FE992E00E941A048F2D972D0E942E
:1010C0001C0482EB92E00E941A04EF81F885608193
:1010D0007181828193814AE0E2CEE12C01CF0196B9
:1010E0008730910509F047CF812C912C540154CFC2
:1010F00001968730910509F09DCFB2CFF60140816E
:1011000051816281738124013501441A550A660AAE
:10111000770AB301A201481759076A077B0708F449
:101120009FCF80829182A282B382F801E958FC4F5E
:10113000608163256083F801EE0FFF1FE85EFD4FBD
:1011400080810E94F8018CCFE0EDF3E013821282DF
:1011500088EE93E0A0E0B0E084839583A683B78314
:101160008AE092E09183808385EC90E09587848784
:1011700084EC90E09787868780EC90E0918B808B61
:1011800081EC90E0938B828B82EC90E0958B848B4A
:1011900086EC90E0978B868B118E128E138E148EB8
:1011A000089597FB072E16F4009407D077FD09D019
:1011B0000E940F0907FC05D03EF4909581959F4F42
:1011C0000895709561957F4F0895A1E21A2EAA1B8C
:1011D000BB1BFD010DC0AA1FBB1FEE1FFF1FA217E7
:1011E000B307E407F50720F0A21BB30BE40BF50BE4
:1011F000661F771F881F991F1A9469F7609570956D
:10120000809590959B01AC01BD01CF010895EE0F33
:10121000FF1F881F8BBF0790F691E02D1994AA1B22
:10122000BB1B51E107C0AA1FBB1FA617B70710F0D1
:10123000A61BB70B881F991F5A95A9F78095909503
:10124000BC01CD0108950F931F93CF93DF9382309C
:10125000910510F482E090E0E0916F04F091700449
:1012600030E020E0B0E0A0E0309799F4211531059E
:1012700009F44AC0281B390B24303105D8F58A817E
:101280009B816115710589F1FB0193838283FE01C6
:1012900011C0408151810281138148175907E0F044
:1012A0004817590799F4109761F012960C9312970A
:1012B00013961C933296CF01DF91CF911F910F911E
:1012C000089500936F0410937004F4CF2115310535
:1012D00051F04217530738F0A901DB019A01BD0113
:1012E000DF01F801C1CFEF01F9CF90937004809333
:1012F0006F04CDCFFE01E20FF31F81939193225033
:10130000310939832883D7CF20916D0430916E0441
:10131000232B41F4209102023091030230936E049A
:1013200020936D04209100023091010221153105B6
:1013300041F42DB73EB74091040250910502241BA1
:10134000350BE0916D04F0916E04E217F307A0F401
:101350002E1B3F0B2817390778F0AC014E5F5F4F0B
:101360002417350748F04E0F5F1F50936E044093CB
:101370006D04819391939FCFF0E0E0E09CCFCF93F9
:10138000DF930097E9F0FC01329713821282A0915B
:101390006F04B0917004ED0130E020E01097A1F4EB
:1013A00020813181820F931F20916D0430916E0452
:1013B0002817390709F061C0F0936E04E0936D04BB
:1013C000DF91CF910895EA01CE17DF07E8F54A8152
:1013D0005B819E0141155105B1F7E901FB83EA8369
:1013E00049915991C40FD51FEC17FD0761F4808115
:1013F00091810296840F951FE901998388838281E8
:1014000093819B838A83F0E0E0E012968D919C911A
:1014100013970097B9F52D913C911197CD01029644
:10142000820F931F20916D0430916E0428173907A5
:1014300039F6309751F51092700410926F04B09302
:101440006E04A0936D04BCCFD383C28340815181CD
:10145000840F951FC817D90761F44E5F5F4F8881CD
:101460009981480F591F518340838A819B819383BF
:1014700082832115310509F0B0CFF0937004E09319
:101480006F049ECFFD01DC01C0CF13821282D7CF43
:101490004F925F926F927F928F929F92AF92BF9284
:1014A000CF92DF92EF92FF920F931F93CF93DF9330
:1014B0008C01009799F4CB01DF91CF911F910F918F
:1014C000FF90EF90DF90CF90BF90AF909F908F9064
:1014D0007F906F905F904F900C942309FC01E60F72
:1014E000F71F9C0122503109E217F30708F4AEC040
:1014F000D901CD91DC911197C617D70720F1C530DE
:10150000D10578F0CE0104978617970750F0C61BD7
:10151000D70B2297C193D1936D937C93CF010E94F7
:10152000BF09C801DF91CF911F910F91FF90EF90FC
:10153000DF90CF90BF90AF909F908F907F906F90F3
:101540005F904F9008955B01AC1ABD0A4C018C0E60
:101550009D1EA0916F04B0917004512C412CF12C70
:10156000E12C109731F580916D0490916E048815EF
:10157000990509F05CC04616570608F058C08091DE
:10158000000290910102009741F48DB79EB74091FF
:10159000040250910502841B950BE817F90708F027
:1015A00055C0F0936E04E0936D04F901718360837C
:1015B000B8CF8D919C91119712966C9012971396BB
:1015C0007C901397A815B90559F56C0142E0C40E3B
:1015D000D11CCA14DB0420F1AC014A195B09DA0101
:1015E0001296159780F06282738251834083D901ED
:1015F0006D937C93E114F10471F0D7011396FC9381
:10160000EE9312978ECF22968C0F9D1FF901918336
:101610008083F301EFCFF0937004E0936F0481CFE8
:101620004816590608F42C017D01D3019ACFCB014D
:101630000E9423097C01009749F0AE01B8010E9485
:10164000290BC8010E94BF0987016BCF10E000E0A1
:1016500068CFFB01DC0102C001900D924150504067
:10166000D8F70895FB01DC0101900D920020E1F70D
:061670000895F894FFCF7D
:10167600000071048000000000001D038702B40210
:101686006A03E502C302D7021E001F0020002100E4
:1016960022002300240016001700180019001A0063
:1016A6001B001C000D0A0041726475696E6F2037BD
:1016B60078203535352054696D657220536571750E
:1016C600656E63657220496E697469616C697A65D5
:1016D600642E000A2D2D2D205374617274696E6775
:1016E600204E65772053657175656E6365202D2DD7
:1016F6002D002066697265642000746800737400AA
:101706006E64007264002061742000206D730020F6
:10171600202D3E2054696D6572206F6E2070696EB3
:101726002000204F46462E204475726174696F6E04
:101736003A20002D2D2D2053657175656E63652049
:10174600436F6D706C657465202D2D2D000A2D2D4F
:101756002D2046696E616C20526573756C7473201A
:101766002D2D2D00466972696E67204F7264657271
:101776003A002020003A2050696E20000A426C6927
:101786006E6B20526174657320286D73293A0020B0
:10179600204C45442000202850696E200029205204
:1017A6006174653A20000A5374617274696E672029
:1017B6004C454420626C696E6B696E672E2E2E0056
:00000001FF
